:020000040800F2
:1000000000C001207D2800087D210008852100080E
:100010008D210008952100089D21000800000000A6
:10002000000000000000000000000000A521000802
:10003000B321000800000000C1210008CF21000802
:10004000CD280008CD280008CD280008CD280008BC
:10005000CD280008CD280008DB210008E921000890
:10006000F72100080522000813220008CD28000807
:10007000CD280008CD280008CD280008CD2800088C
:10008000CD280008CD280008CD280008CD2800087C
:10009000CD280008CD280008CD280008212200081E
:1000A000CD280008CD280008CD280008CD2800085C
:1000B000CD280008CD280008CD280008CD2800084C
:1000C000CD280008CD280008CD280008CD2800083C
:1000D000CD28000839220008CD280008CD280008C6
:1000E0004D220008CD280008CD280008CD280008A2
:1000F000CD280008CD280008CD280008CD2800080C
:10010000CD280008CD280008CD280008CD280008FB
:10011000CD280008CD280008CD280008CD280008EB
:10012000CD280008CD280008CD280008CD280008DB
:10013000CD2800080000000000000000CD280008C5
:10014000CD280008CD280008CD280008CD280008BB
:10015000CD280008CD280008CD280008CD280008AB
:10016000CD280008CD280008CD280008CD2800089B
:10017000CD280008CD280008000000000000000085
:08018000CD280008CD2800087D
:1001900010B5054C237833B9044B13B10448AFF3C1
:1001A00000800123237010BDE40100200000000046
:1001B0008493000808B5034B1BB103490348AFF310
:1001C000008008BD00000000E801002084930008C2
:1001D00001F0FF01102A2BDB10F0070F08D010F8F8
:1001E000013B013A8B422DD010F0070F42B3F6D1FC
:1001F000F0B441EA012141EA014122F007047FF015
:1002000000070023F0E80256083C85EA010586EA6B
:10021000010685FA47F5A3FA87F586FA47F6A5FAA7
:1002200087F68EB9EED1F0BC01F0FF0102F00702B3
:1002300032B110F8013B013A83EA010313B1F8D15E
:100240000020704701387047002D06BF354603383F
:10025000073815F0010F07D1013015F4807F02BF78
:10026000013015F4C03F0130F0BC0138704700BFC9
:10027000034613F8012B002AFBD1181A01387047E6
:1002800081F0004102E000BF83F0004330B54FEA47
:1002900041044FEA430594EA050F08BF90EA020FB4
:1002A0001FBF54EA000C55EA020C7FEA645C7FEA47
:1002B000655C00F0E2804FEA5454D4EB5555B8BF6A
:1002C0006D420CDD2C4480EA020281EA030382EADB
:1002D000000083EA010180EA020281EA0303362D6D
:1002E00088BF30BD11F0004F4FEA01314FF4801C40
:1002F0004CEA113102D0404261EB410113F0004F52
:100300004FEA03334CEA133302D0524263EB430308
:1003100094EA050F00F0A780A4F10104D5F1200EA6
:100320000DDB02FA0EFC22FA05F2801841F1000101
:1003300003FA0EF2801843FA05F359410EE0A5F1D5
:1003400020050EF1200E012A03FA0EFC28BF4CF006
:10035000020C43FA05F3C01851EBE37101F00045BC
:1003600007D54FF0000EDCF1000C7EEB00006EEBC9
:100370000101B1F5801F1BD3B1F5001F0CD3490853
:100380005FEA30004FEA3C0C04F101044FEA4452AA
:1003900012F5800F80F09A80BCF1004F08BF5FEA31
:1003A000500C50F1000041EB045141EA050130BD11
:1003B0005FEA4C0C404141EB0101013C28BFB1F523
:1003C000801FE9D291F0000F04BF01460020B1FA6E
:1003D00081F308BF2033A3F10B03B3F120020CDA41
:1003E0000C3208DD02F1140CC2F10C0201FA0CF01F
:1003F00021FA02F10CE002F11402D8BFC2F1200C84
:1004000001FA02F120FA0CFCDCBF41EA0C01904039
:10041000E41AA2BF01EB0451294330BD6FEA040482
:100420001F3C1CDA0C340EDC04F11404C4F120026D
:1004300020FA04F001FA02F340EA030021FA04F37F
:1004400045EA030130BDC4F10C04C4F1200220FAD6
:1004500002F001FA04F340EA0300294630BD21FA14
:1004600004F0294630BD94F0000F83F4801306BFDA
:1004700081F480110134013D4EE77FEA645C18BFCE
:100480007FEA655C29D094EA050F08BF90EA020F65
:1004900005D054EA000C04BF1946104630BD91EA5D
:1004A000030F1EBF0021002030BD5FEA545C05D160
:1004B0004000494128BF41F0004130BD14F580049F
:1004C0003CBF01F5801130BD01F0004545F0FE4113
:1004D00041F470014FF0000030BD7FEA645C1ABF48
:1004E000194610467FEA655C1CBF0B46024650EA7F
:1004F000013406BF52EA033591EA030F41F40021AB
:1005000030BD00BF90F0000F04BF0021704730B530
:100510004FF4806404F132044FF000054FF0000105
:1005200050E700BF90F0000F04BF0021704730B5C6
:100530004FF4806404F1320410F0004548BF40429B
:100540004FF000013EE700BF42004FEAE2014FEAF0
:1005500031014FEA02701FBF12F07F4393F07F4FCB
:1005600081F06051704732F07F4208BF704793F0CE
:100570007F4F04BF41F40021704730B54FF46074E1
:1005800001F0004521F000411CE700BF50EA0102E4
:1005900008BF704730B54FF000050AE050EA01028D
:1005A00008BF704730B511F0004502D5404261EBFD
:1005B00041014FF4806404F132045FEA915C3FF43E
:1005C000D8AE4FF003025FEADC0C18BF03325FEADB
:1005D000DC0C18BF033202EBDC02C2F1200300FA8C
:1005E00003FC20FA02F001FA03FE40EA0E0021FAB1
:1005F00002F11444BDE600BF70B54FF0FF0C4CF49F
:10060000E06C1CEA11541DBF1CEA135594EA0C0F50
:1006100095EA0C0F00F0DEF82C4481EA030621EA8B
:100620004C5123EA4C5350EA013518BF52EA0335C6
:1006300041F4801143F4801338D0A0FB02CE4FF078
:100640000005E1FB02E506F00042E0FB03E54FF0A8
:100650000006E1FB03569CF0000F18BF4EF0010EA0
:10066000A4F1FF04B6F5007F64F5407404D25FEA9C
:100670004E0E6D4146EB060642EAC62141EA55514F
:100680004FEAC52040EA5E504FEACE2EB4F1FD0C91
:1006900088BFBCF5E06F1ED8BEF1004F08BF5FEA0F
:1006A000500E50F1000041EB045170BD06F00046C1
:1006B00046EA010140EA020081EA0301B4EB5C046E
:1006C000C2BFD4EB0C0541EA045170BD41F4801166
:1006D0004FF0000E013C00F3AB8014F1360FDEBF8B
:1006E000002001F0004170BDC4F10004203C35DA67
:1006F0000C341BDC04F11404C4F1200500FA05F3EA
:1007000020FA04F001FA05F240EA020001F000428A
:1007100021F0004110EBD37021FA04F642EB060100
:100720005EEA430E08BF20EAD37070BDC4F10C042A
:10073000C4F1200500FA04F320FA05F001FA04F2EE
:1007400040EA020001F0004110EBD37041F10001DA
:100750005EEA430E08BF20EAD37070BDC4F12005E5
:1007600000FA05F24EEA020E20FA04F301FA05F24D
:1007700043EA020321FA04F001F0004121FA04F2F5
:1007800020EA020000EBD3705EEA430E08BF20EAC5
:10079000D37070BD94F0000F0FD101F000464000FF
:1007A00041EB010111F4801F08BF013CF7D041EA81
:1007B000060195F0000F18BF704703F00046520085
:1007C00043EB030313F4801F08BF013DF7D043EA56
:1007D0000603704794EA0C0F0CEA135518BF95EA0C
:1007E0000C0F0CD050EA410618BF52EA4306D1D193
:1007F00081EA030101F000414FF0000070BD50EAB2
:10080000410606BF1046194652EA430619D094EA3B
:100810000C0F02D150EA013613D195EA0C0F05D125
:1008200052EA03361CBF104619460AD181EA030179
:1008300001F0004141F0FE4141F470014FF0000031
:1008400070BD41F0FE4141F4780170BD70B54FF0CC
:10085000FF0C4CF4E06C1CEA11541DBF1CEA13554C
:1008600094EA0C0F95EA0C0F00F0A7F8A4EB05042E
:1008700081EA030E52EA03354FEA013100F0888025
:100880004FEA03334FF0805545EA131343EA1263EE
:100890004FEA022245EA111545EA10654FEA0026A3
:1008A0000EF000419D4208BF964244F1FD0404F55C
:1008B000407402D25B084FEA3202B61A65EB0305B8
:1008C0005B084FEA32024FF480104FF4002CB6EB75
:1008D000020E75EB030E22BFB61A754640EA0C00F5
:1008E0005B084FEA3202B6EB020E75EB030E22BF35
:1008F000B61A754640EA5C005B084FEA3202B6EB76
:10090000020E75EB030E22BFB61A754640EA9C0034
:100910005B084FEA3202B6EB020E75EB030E22BF04
:10092000B61A754640EADC0055EA060E18D04FEAC2
:10093000051545EA16754FEA06164FEAC30343EA62
:1009400052734FEAC2025FEA1C1CC0D111F4801F2F
:100950000BD141EA00014FF000004FF0004CB6E728
:1009600011F4801F04BF01430020B4F1FD0C88BFC7
:10097000BCF5E06F3FF6AFAEB5EB030C04BFB6EBD2
:10098000020C5FEA500C50F1000041EB045170BDC5
:100990000EF0004E4EEA113114EB5C04C2BFD4EBF2
:1009A0000C0541EA045170BD41F480114FF0000E76
:1009B000013C90E645EA060E8DE60CEA135594EAF2
:1009C0000C0F08BF95EA0C0F3FF43BAF94EA0C0FF5
:1009D0000AD150EA01347FF434AF95EA0C0F7FF46A
:1009E00025AF104619462CE795EA0C0F06D152EABE
:1009F00003353FF4FDAE1046194622E750EA4106A2
:100A000018BF52EA43067FF4C5AE50EA41047FF4B2
:100A10000DAF52EA43057FF4EBAE12E74FF0FF3C17
:100A200006E000BF4FF0010C02E000BF4FF0010CE8
:100A30004DF804CD4FEA410C7FEA6C5C4FEA430C61
:100A400018BF7FEA6C5C1BD001B050EA410C0CBFB0
:100A500052EA430C91EA030F02BF90EA020F002012
:100A6000704710F1000F91EA030F58BF994208BF79
:100A700090422CBFD8176FEAE37040F00100704736
:100A80004FEA410C7FEA6C5C02D150EA013C07D18D
:100A90004FEA430C7FEA6C5CD6D152EA033CD3D0D8
:100AA0005DF8040B704700BF8446104662468C46D2
:100AB0001946634600E000BF01B5FFF7B7FF002805
:100AC00048BF10F1000F01BD4DF808EDFFF7F4FF2E
:100AD0000CBF012000205DF808FB00BF4DF808EDB9
:100AE000FFF7EAFF34BF012000205DF808FB00BFDC
:100AF0004DF808EDFFF7E0FF94BF012000205DF8FE
:100B000008FB00BF4DF808EDFFF7CEFF94BF0120B2
:100B100000205DF808FB00BF4DF808EDFFF7C4FFAB
:100B200034BF012000205DF808FB00BF4FEA410CF4
:100B30007FEA6C5C02D150EA013C0AD14FEA430CD7
:100B40007FEA6C5C02D152EA033C02D14FF0000014
:100B500070474FF0010070474FEA410212F5001252
:100B600015D211D56FF47873B3EB625212D94FEAF4
:100B7000C12343F0004343EA505311F0004F23FADE
:100B800002F018BF404270474FF00000704750EA33
:100B9000013005D111F0004008BF6FF000407047F0
:100BA0004FF00000704700BF53B94AB9002908BF91
:100BB00000281CBF4FF0FF314FF0FF3000F06AB942
:100BC000ADF1080C6DE904CE00F006F8DDF804E0A4
:100BD000DDE9022304B070472DE9F047089D0C467B
:100BE000002B4ED194468C458646B2FA82F262D9E9
:100BF0004AB1C2F12003914020FA03F30CFA02FC3F
:100C0000194300FA02FE4FEA1C471FFA8CF6B1FBAB
:100C1000F7F44FEA1E4307FB141143EA014304FBB8
:100C200006F199420AD91CEB030304F1FF3080F06E
:100C30001281994240F20F81023C6344591A1FFA13
:100C40008EF3B1FBF7F007FB101143EA014300FB01
:100C500006F69E420AD91CEB030300F1FF3180F037
:100C6000FC809E4240F2F980634402389B1B40EABC
:100C7000044000211DB1D3400022C5E90032BDE887
:100C8000F0878B4205D90DB1C5E900010021084666
:100C9000F5E7B3FA83F1002946D1A34202D390428B
:100CA000C0F0F080861A64EB03030120002DE6D02B
:100CB000C5E90063E3E7002A40F09080A1EB0C0453
:100CC0004FEA1C481FFA8CF70121B4FBF8F64FEAF3
:100CD0001E4308FB164443EA044307FB06F0984210
:100CE00008D91CEB030306F1FF3402D2984200F24C
:100CF000CD8026461C1A1FFA8EF3B4FBF8F008FBD1
:100D0000104443EA044300FB07F79F4208D91CEB59
:100D1000030300F1FF3402D29F4200F2B08020466C
:100D2000DB1B40EA0640A5E7C1F120068B4022FA12
:100D300006F71F4320FA06FC04FA01F343EA0C030A
:100D4000F44000FA01F8380C4FEA1349B4FBF0FE06
:100D50001FFA87FC00FB1E4449EA04440EFB0CF911
:100D6000A14502FA01F20AD93C190EF1FF3A80F0CE
:100D70008480A14540F28180AEF1020E3C44A4EB98
:100D800009041FFA83F9B4FBF0F300FB134449EAAA
:100D9000044403FB0CFCA44507D93C1903F1FF30C4
:100DA00067D2A44565D9023B3C4443EA0E40A0FB10
:100DB0000293A4EB0C049C42CE469C4651D34ED0E9
:100DC00055B1B8EB0E0364EB0C0404FA06F6CB4005
:100DD0001E43CC40C5E90064002150E7C2F1200366
:100DE00020FA03F10CFA02FC24FA03F394400C43BA
:100DF0004FEA1C4800FA02FE1FFA8CF7B3FBF8F02A
:100E000008FB1031230C43EA014300FB07F1994230
:100E100008D91CEB030300F1FF362CD299422AD9E2
:100E2000023863445B1AA4B2B3FBF8F108FB113338
:100E300044EA034401FB07F3A34208D91CEB040472
:100E400001F1FF3613D2A34211D902396444E41AE6
:100E500041EA004139E70446F0E6084606E7C8459E
:100E6000AED2B9EB020E63EB070C0138A8E73146AE
:100E7000EDE7034699E73046D4E7D6467FE763447B
:100E800002384DE70646234608460FE7023E634414
:100E900030E700BF704700BF80B584B000AF3B466D
:100EA00000221A605A609A60DA60214B214A1A6067
:100EB0001F4B4FF480325A601D4B00229A601C4B2E
:100EC00000221A611A4B00221A76194B002283F86D
:100ED0002020174B0022DA62154B174A9A62144BF6
:100EE0000022DA60124B0122DA61114B002283F8F2
:100EF00030200F4B01225A610D4801F07FFD03465F
:100F0000002B01D000F046FE0A233B6001237B60EA
:100F10000023BB603B461946054801F0B3FD03467C
:100F2000002B01D000F036FE00BF1037BD4680BD5B
:100F300000020020002001400100000F80B584B0B5
:100F400000AF3B4600221A605A609A60DA60214B7B
:100F5000214A1A601F4B4FF480325A601D4B002209
:100F60009A601C4B00221A611A4B00221A76194B08
:100F7000002283F82020174B0022DA62154B174A13
:100F80009A62144B0022DA60124B0122DA61114B93
:100F9000002283F830200F4B01225A610D4801F0E6
:100FA0002DFD0346002B01D000F0F4FD06233B602D
:100FB00001237B600023BB603B461946054801F0D6
:100FC00061FD0346002B01D000F0E4FD00BF1037A7
:100FD000BD4680BD48020020002101400100000FF5
:100FE00080B584B000AF3B4600221A605A609A6018
:100FF000DA60214B214A1A601F4B4FF480325A604D
:101000001D4B00229A601C4B00221A611A4B0022D1
:101010001A76194B002283F82020174B0022DA623F
:10102000154B174A9A62144B0022DA60124B0122C8
:10103000DA61114B002283F830200F4B01225A61F4
:101040000D4801F0DBFC0346002B01D000F0A2FDAF
:101050000B233B6001237B600023BB603B461946AA
:10106000054801F00FFD0346002B01D000F092FD72
:1010700000BF1037BD4680BD900200200022014015
:101080000100000F80B590B000AF786007F12C032D
:1010900000221A605A609A60DA601A617B681B68E5
:1010A0005F4A934242D10023BB625E4B5B6C5D4A58
:1010B00043F4807353645B4B5B6C03F48073BB62DB
:1010C000BB6A00237B62574B1B6B564A43F00403F9
:1010D0001363544B1B6B03F004037B627B6A002396
:1010E0003B62504B1B6B4F4A43F0010313634D4B64
:1010F0001B6B03F001033B623B6A0123FB6203238A
:101100003B6300237B6307F12C031946464802F03A
:101110007BF88423FB6203233B6300237B6307F19B
:101120002C031946414802F06FF874E07B681B6895
:101130003F4A934242D10023FB613A4B5B6C394AF0
:1011400043F400735364374B5B6C03F40073FB612F
:10115000FB690023BB61334B1B6B324A43F0040332
:101160001363304B1B6B03F00403BB61BB690023AB
:101170007B612C4B1B6B2B4A43F001031363294B00
:101180001B6B03F001037B617B693C23FB62032340
:101190003B6300237B6307F12C031946224802F0CE
:1011A00033F84023FB6203233B6300237B6307F197
:1011B0002C0319461D4802F027F82CE07B681B68B9
:1011C0001C4A934227D100233B61164B5B6C154AA6
:1011D00043F480635364134B5B6C03F480633B61A3
:1011E0003B690023FB600F4B1B6B0E4A43F004036B
:1011F00013630C4B1B6B03F00403FB60FB680223BF
:10120000FB6203233B6300237B6307F12C03194636
:10121000054801F0F9FF00BF4037BD4680BD00BF63
:101220000020014000380240000802400000024057
:10123000002101400022014080B58AB000AF07F1D3
:10124000140300221A605A609A60DA601A6100235F
:101250003B61834B1B6B824A43F004031363804B57
:101260001B6B03F004033B613B690023FB607C4B79
:101270001B6B7B4A43F080031363794B1B6B03F0BA
:101280008003FB60FB680023BB60754B1B6B744ADB
:1012900043F001031363724B1B6B03F00103BB604C
:1012A000BB6800237B606E4B1B6B6D4A43F00203EF
:1012B00013636B4B1B6B03F002037B607B680023A3
:1012C0003B60674B1B6B664A43F008031363644B38
:1012D0001B6B03F008033B603B6800224FF4B841EE
:1012E000604802F045F90022F9215F4802F040F918
:1012F00000224FF410415D4802F03AF90022042127
:101300005B4802F035F94FF4B8437B610123BB61C0
:101310000023FB6100233B6207F114031946514887
:1013200001F072FF3B237B614FF44413BB61022346
:10133000FB6107F1140319464C4801F065FFF923DE
:101340007B610123BB610023FB6100233B6207F14A
:1013500014031946444801F057FF47F604437B61E4
:101360004FF44413BB610223FB6107F114031946D8
:101370003D4801F049FF4FF400437B614FF488136F
:10138000BB610223FB6107F114031946364801F0E3
:101390003BFF4FF400737B614FF44413BB610223A6
:1013A000FB6107F1140319462E4801F02DFF4FF49D
:1013B00010437B610123BB610023FB6100233B627F
:1013C00007F114031946294801F01EFF04237B612D
:1013D0000123BB610023FB6100233B6207F114037F
:1013E0001946234801F010FF00220021062001F0D9
:1013F00042FE062001F05BFE00220021072001F0E2
:101400003AFE072001F053FE00220021082001F0DF
:1014100032FE082001F04BFE00220021092001F0DD
:101420002AFE092001F043FE002200210A2001F0DB
:1014300022FE0A2001F03BFE00220021172001F0CD
:101440001AFE172001F033FE00220021282001F0AF
:1014500012FE282001F02BFE00BF2837BD4680BDBC
:101460000038024000080240000402400000024030
:10147000000C024080B500AF124B134A1A60114BAA
:10148000124A5A600F4B00229A600E4B0022DA601B
:101490000C4B4FF480421A610A4B00225A61094BEF
:1014A00000229A61074B0022DA61064B00221A6281
:1014B000044802F08FF80346002B01D000F06AFBCD
:1014C00000BF80BDD802002000540040801A0600F2
:1014D00080B58AB000AF786007F1140300221A606B
:1014E0005A609A60DA601A617B681B68194A9342F5
:1014F0002CD100233B61184B1B6B174A43F00203AE
:101500001363154B1B6B03F002033B613B694FF404
:1015100040737B611223BB610023FB6103233B62A9
:1015200004237B6207F1140319460C4801F06CFE9A
:101530000023FB60084B1B6C074A43F40013136441
:10154000054B1B6C03F40013FB60FB6800BF2837DE
:10155000BD4680BD005400400038024000040240F7
:1015600080B582B000AF01F0B3F900F04FFAFFF799
:1015700063FEFFF791FCFFF77DFF01F005F901F035
:101580000DF800F073FF00F0C5FEFFF7D7FCFFF782
:1015900027FD0C21974803F0CBFB0021954803F071
:1015A000C7FB0421934803F0C3FB0821914803F0D3
:1015B000BFFB0021904803F0BBFB0C218E4803F0D9
:1015C000B7FB3C218B4803F07BFC00218A4803F0E9
:1015D00077FC0C21884803F073FC00F0E1FA00214D
:1015E000002000F047FC01228449854800F0D6FC29
:1015F0001E21002000F03EFC01228049814800F0BD
:10160000CDFC00F091FB40F2DC5001F0D3F900F08A
:10161000EAFC02217C4801F093FF03461A467B4B0B
:101620001A6004217A4801F08BFF03461A46794B71
:101630001A600821744801F083FF03461A46764B6E
:101640001A601021724801F07BFF03461A46734B63
:101650001A6020216C4801F073FF03461A46704B54
:101660001A604FF400716A4801F06AFF03461A4697
:101670006C4B1A604FF48061634801F061FF0346D0
:101680001A46694B1A600121614801F059FF03466F
:101690001A46664B1A604FF400615B4801F050FF38
:1016A00003461A46624B1A604FF48051584801F0C5
:1016B00047FF03461A465F4B1A604FF400515248E9
:1016C00001F03EFF03461A465B4B1A604FF480411F
:1016D0004F4801F035FF03461A46584B1A60002365
:1016E0007B60012220214A4801F042FF0122402173
:1016F000474801F03DFF3F4B1B6840F209629A6387
:1017000001228021424801F033FF00224FF4804142
:101710004B4801F02DFF374B1B6840F20962DA633A
:101720007B68032BDDD801A252F823F03D17000897
:1017300087170008551800088919000800210020A3
:1017400000F098FB01223F493F4800F027FC2D2183
:10175000002000F08FFB01223A493C4800F01EFCBB
:1017600000F0E2FA322001F025F900F03CFC4FF4E1
:101770000041274801F0E4FE0346012B40F02F8191
:1017800001237B602BE10021002000F073FB01228C
:101790001A492F4800F002FC00F0C6FA322001F08E
:1017A00009F900F020FC4FF40041194801F0C8FE8F
:1017B0000346012B00F015810E4B1B6800221A64B2
:1017C0000C4B1B6800225A630A4B1B6800229A6369
:1017D000084B1B680022DA63074B1B6800225A6320
:1017E000054B1B6800221A644FF47A7001F0E2F88E
:1017F000F7E000BFE40700209C070020080000205D
:10180000A0930008AC930008000002405C03002095
:1018100000040240600300206403002068030020ED
:101820007003002074030020780300207C03002054
:101830008003002084030020880300208C03002004
:101840000008024000000020B8930008CC93000874
:10185000DC9300080021002000F00CFB012262490B
:10186000624800F09BFB00F05FFA322001F0A2F822
:1018700000F0B9FB4FF400415D4801F061FE034602
:10188000012B68D100224FF400615A4801F070FE2C
:1018900001224FF48051574801F06AFE564B1B68F5
:1018A0004FF42F721A6400224FF48051534801F014
:1018B0005FFE01224FF40041504801F059FE504BA9
:1018C0001B684FF42F721A6440F6B83001F072F8BA
:1018D00001220121464801F04BFE00224FF48061B5
:1018E000444801F045FE464B1B684FF42F725A6383
:1018F000002208213E4801F03BFE012210213C4815
:1019000001F036FE3C4B1B684FF42F725A630022E5
:101910002021374801F02CFE01224021344801F0FB
:1019200027FE354B1B684FF42F729A6300228021EB
:101930002F4801F01DFE01224FF480412D4801F097
:1019400017FE2D4B1B684FF42F72DA634FF4FA60C9
:1019500001F030F847E0284B1B6800221A64264B40
:101960001B6800225A63244B1B6800229A63224B97
:101970001B680022DA63224B1B6800225A63204B4B
:101980001B6800221A642EE00021002000F072FA89
:10199000012215491B4800F001FB00F0C5F9322077
:1019A00001F008F800F01FFB0EE0002208211048AB
:1019B00001F0DEFD012210210D4801F0D9FD0E4B92
:1019C0001B6840F209625A630F4B1B68052BECDC65
:1019D000094B1B6800225A6300237B6003E000BFB1
:1019E0007FE600BF7DE67CE608000020E493000867
:1019F0000004024000080240E4070020000002400A
:101A00009C070020EC9300086C03002080B594B084
:101A100000AF07F1200330220021184605F005FE33
:101A200007F10C0300221A605A609A60DA601A61AA
:101A30000023BB60284B1B6C274A43F08053136480
:101A4000254B1B6C03F08053BB60BB6800237B609D
:101A5000224B1B68214A43F4804313601F4B1B68D1
:101A600003F480437B607B6801233B624FF4803347
:101A70007B620223BB634FF48003FB6308233B6458
:101A8000A8237B640223BB640423FB6407F12003C7
:101A9000184602F00FFC0346002B01D000F07AF844
:101AA0000F23FB6002233B6100237B614FF4A053B3
:101AB000BB614FF48053FB6107F10C03052118460D
:101AC00002F070FE0346002B01D000F063F800BF67
:101AD0005037BD4680BD00BF003802400070004056
:101AE00080B584B000AF0346FB800821254801F093
:101AF00027FD0346002B14BF01230023FB73102195
:101B0000204801F01DFD0346002B14BF01230023D4
:101B1000BB73FB88082B14D1FA7B1B4B1B689A42C2
:101B200026D0FA7BBB7B9A4205D1184B1B68013B40
:101B3000164A13601CE0154B1B680133134A1360EF
:101B400016E0FB88102B13D1BA7B114B1B689A420D
:101B50000ED0FA7BBB7B9A4205D00C4B1B68013B35
:101B60000A4A136004E0094B1B680133074A1360FB
:101B7000FB7B054A1360BB7B054A136000BF10372F
:101B8000BD4680BD00040240640300206C030020B9
:101B90006803002080B400AF72B600BF00BFFDE74D
:101BA00080B582B000AF00F027FA44F6206301222E
:101BB00078215B4801F08CFF0346002B01D0002305
:101BC000A9E040F6C4137B6002E07B68013B7B60C8
:101BD0007B68002BF9D1AE220021782000F088FA32
:101BE00020220021782000F083FA102200217820A2
:101BF00000F07EFAB0220021782000F079FAC822A5
:101C00000021782000F074FA00220021782000F0F2
:101C10006FFA10220021782000F06AFA4022002199
:101C2000782000F065FA81220021782000F060FA27
:101C3000FF220021782000F05BFAA1220021782009
:101C400000F056FAA6220021782000F051FAA822CE
:101C50000021782000F04CFA3F220021782000F08B
:101C600047FAA4220021782000F042FAD322002172
:101C7000782000F03DFA00220021782000F038FAA8
:101C8000D5220021782000F033FAF02200217820BC
:101C900000F02EFAD9220021782000F029FA222221
:101CA0000021782000F024FADA220021782000F0C8
:101CB0001FFA12220021782000F01AFADB220021FC
:101CC000782000F015FA20220021782000F010FA88
:101CD0008D220021782000F00BFA142200217820B8
:101CE00000F006FAAF220021782000F001FA2E223F
:101CF0000021782000F0FCF9002000F043F800F00B
:101D000013F8084B00221A80064B00225A80054B1C
:101D100001225A71012318460837BD4680BD00BF15
:101D2000D80200209007002080B582B000AF0023C9
:101D3000FB711DE0FB79503BDBB21A460021782095
:101D400000F0D6F900220021782000F0D1F910220D
:101D50000021782000F0CCF9FB79DB01084A1A4415
:101D600080234021782000F05DF9FB790133FB717D
:101D7000FB79072BDED900BF00BF0837BD4680BD09
:101D80009003002080B582B000AF0346FB71FB7961
:101D9000002B01D1002300E0FF234FF4806219469D
:101DA000034805F042FC00BF0837BD4680BD00BFB8
:101DB0009003002080B483B000AF0346FB800B4645
:101DC000BB801346FB70FB887F2B48D8BB883F2B1A
:101DD00045D8264B1B79002B06D0FB78002B0CBF77
:101DE00001230023DBB2FB70FB78012B1AD1FA88A8
:101DF000BB88DB0898B20346DB0113441C4AD35C62
:101E00005AB2BB8803F00703012101FA03F35BB266
:101E1000134359B2FA880346DB011344C9B2144A8A
:101E2000D1541DE0FA88BB88DB0898B20346DB0179
:101E300013440F4AD35C5AB2BB8803F00703012155
:101E400001FA03F35BB2DB435BB2134059B2FA8889
:101E50000346DB011344C9B2054AD15400E000BF78
:101E60000C37BD465DF8047B704700BF900700202B
:101E70009003002080B483B000AF03460A46FB8085
:101E80001346BB80054AFB881380044ABB885380F5
:101E900000BF0C37BD465DF8047B704790070020FB
:101EA00080B586B000AF03463960FB711346BB7145
:101EB000394B1B881A463B681B7813447F2B07DC81
:101EC000354B5B881A463B685B7813443F2B01DD3A
:101ED00000235DE000237B614BE03B685A68FB799F
:101EE000203B3968497801FB03F319467B690B44B1
:101EF0005B0013441B88FB6000233B6130E0FA6801
:101F00003B6902FA03F303F40043002B10D0224B89
:101F10001A883B699BB2134498B21F4B5A887B695D
:101F20009BB213449BB2BA791946FFF743FF14E002
:101F3000194B1A883B699BB2134498B2164B5A88C6
:101F40007B699BB2134499B2BB79002B0CBF012370
:101F50000023DBB21A46FFF72DFF3B6901333B61DB
:101F60003B681B781A463B699342C8D37B690133AF
:101F70007B613B685B781A467B699342ADD3064B25
:101F80001B883A68127813449AB2034B1A80FB7983
:101F900018461837BD4680BD9007002080B584B034
:101FA00000AFF860B9601346FB7112E0FB681B7864
:101FB000FA79B9681846FFF773FF03461A46FB68BB
:101FC0001B789A4202D0FB681B7808E0FB6801335B
:101FD000FB60FB681B78002BE8D1FB681B78184678
:101FE0001037BD4680BD80B500AF0020FFF7CAFEA8
:101FF000FFF79AFE00BF80BD80B483B000AF084BEE
:102000007B6002E07B68013B7B607B68002BF9D141
:1020100000BF00BF0C37BD465DF8047B704700BFB2
:1020200090D0030090B5C7B002AF0446084607F54C
:102030008871A1F588710A60194607F58873A3F2C3
:10204000091322461A7007F58873A3F585730246B3
:102050001A7007F58873A3F586730A461A8007F588
:102060008873A3F5827307F58872A2F585721278DA
:102070001A70002387F80F3115E097F80F3107F534
:102080008872A2F5887212681A4497F80F310133EA
:10209000117807F58872A2F58272D15497F80F3142
:1020A000013387F80F3197F80F319BB207F588722B
:1020B000A2F5867212889A42DFD807F58873A3F2D8
:1020C00009131B7899B207F58873A3F586731B88EB
:1020D00001339BB207F10C020A200090034801F083
:1020E000F9FB00BF07F58A77BD4690BDD8020020F6
:1020F00080B586B002AF0346FB710B46BB71134639
:102100007B71BB793B737B797B73FB7999B207F168
:102110000C020A2300930223034801F0DBFB00BFFB
:102120001037BD4680BD00BFD802002080B483B008
:1021300000AF00237B60104B5B6C0F4A43F480437D
:1021400053640D4B5B6C03F480437B607B6800231E
:102150003B60094B1B6C084A43F080531364064BE9
:102160001B6C03F080533B603B6800BF0C37BD46DF
:102170005DF8047B704700BF0038024080B400AFB8
:1021800000BFFDE780B400AF00BFFDE780B400AF43
:1021900000BFFDE780B400AF00BFFDE780B400AF33
:1021A00000BFFDE780B400AF00BFBD465DF8047B13
:1021B000704780B400AF00BFBD465DF8047B704738
:1021C00080B400AF00BFBD465DF8047B704780B5AA
:1021D00000AF00F0CFFB00BF80BD80B500AF012095
:1021E00001F0E0F900BF80BD80B500AF022001F032
:1021F000D9F900BF80BD80B500AF042001F0D2F94D
:1022000000BF80BD80B500AF082001F0CBF900BF52
:1022100080BD80B500AF102001F0C4F900BF80BDC3
:1022200080B500AF202001F0BDF94FF4007001F03F
:10223000B9F900BF80BD000080B500AF024803F0CF
:102240009FFC00BF80BD00BF7408002080B500AFB8
:102250004FF4806001F0A6F94FF4006001F0A2F99C
:102260004FF4805001F09EF94FF4005001F09AF9BC
:102270004FF4804001F096F94FF4004001F092F9DC
:1022800000BF80BD80B586B000AF7860144A154BA2
:10229000D31A7B617B693B61134B1B68002B02D116
:1022A000114B124A1A60104B1A687B6813443A6942
:1022B0009A4207D205F01CFA03460C221A604FF02E
:1022C000FF3309E0084B1B68FB60074B1A687B680B
:1022D0001344054A1360FB6818461837BD4680BD95
:1022E00000C001200004000098070020400A0020E0
:1022F00080B400AF064BD3F88830054A43F470032E
:10230000C2F8883000BFBD465DF8047B704700BF4F
:1023100000ED00E080B596B000AF07F14803002261
:102320001A605A609A60DA6007F1400300221A606E
:102330005A6007F1240300221A605A609A60DA603A
:102340001A615A619A613B1D20220021184605F04E
:102350006CF9444B444A1A60424B64225A60414B28
:1023600000229A603F4B40F28F62DA603D4B0022C0
:102370001A613C4B00225A613A4B00229A6139485B
:1023800002F02EFC0346002B01D0FFF703FC4FF4B4
:102390008053BB6407F148031946324802F0E0FE5F
:1023A0000346002B01D0FFF7F5FB2E4802F067FC37
:1023B0000346002B01D0FFF7EDFB00233B64002315
:1023C0007B6407F140031946264803F0ADFA034643
:1023D000002B01D0FFF7DEFB60237B620023BB6292
:1023E0000023FB6200233B6300237B630023BB636A
:1023F0000023FB6307F1240300221946194802F069
:10240000EDFD0346002B01D0FFF7C4FB07F12403C9
:102410000C221946134802F0E1FD0346002B01D0BF
:10242000FFF7B8FB00237B600023BB600023FB6049
:1024300000233B6100237B614FF40053BB61002309
:102440003B623B1D1946074803F0EAFA0346002B9E
:1024500001D0FFF79FFB034800F012F900BF583787
:10246000BD4680BD9C0700200000014080B58EB0B5
:1024700000AF07F1280300221A605A609A60DA6000
:1024800007F1200300221A605A603B1D00221A60E7
:102490005A609A60DA601A615A619A613D4B3E4A0D
:1024A0001A603C4B64225A603A4B00229A60394BC6
:1024B00040F28F62DA60374B00221A61354B0022FE
:1024C0009A61344802F08CFB0346002B01D0FFF7E1
:1024D00061FB4FF48053BB6207F1280319462D4876
:1024E00002F03EFE0346002B01D0FFF753FB2948C4
:1024F00002F0C5FB0346002B01D0FFF74BFB002386
:102500003B6200237B6207F120031946214803F058
:102510000BFA0346002B01D0FFF73CFB60237B60E6
:102520000023BB600023FB6000237B613B1D002276
:102530001946184802F052FD0346002B01D0FFF760
:1025400029FB3B1D04221946124802F047FD0346B1
:10255000002B01D0FFF71EFB3B1D082219460D483A
:1025600002F03CFD0346002B01D0FFF713FB3B1D9F
:102570000C221946074802F031FD0346002B01D01A
:10258000FFF708FB034800F07BF800BF3837BD4673
:1025900080BD00BFE40700200004004080B500AF0C
:1025A0000E4B0F4A1A600D4BA7225A600B4B0022AC
:1025B0009A600A4B4FF6FF72DA60084B00221A61EC
:1025C000064B00229A61054802F00AFB0346002BE5
:1025D00001D0FFF7DFFA00BF80BD00BF2C0800204C
:1025E0000020004080B487B000AF78607B681B6833
:1025F0001F4A93420ED100237B611E4B5B6C1D4A28
:1026000043F0010353641B4B5B6C03F001037B61DC
:102610007B6926E07B681B68174A93420ED1002332
:102620003B61144B1B6C134A43F002031364114BC0
:102630001B6C03F002033B613B6912E07B681B6883
:102640000E4A93420DD10023FB600A4B1B6C094AD2
:1026500043F480731364074B1B6C03F48073FB60BB
:10266000FB6800BF1C37BD465DF8047B704700BFA8
:1026700000000140003802400004004000200040FB
:1026800080B58AB000AF786007F1140300221A60A9
:102690005A609A60DA601A617B681B68344A934218
:1026A0001FD100233B61334B1B6B324A43F00103C4
:1026B0001363304B1B6B03F001033B613B694FF429
:1026C00010637B610223BB610023FB6100233B623B
:1026D00001237B6207F114031946274800F094FD9B
:1026E00041E07B681B68254A93423CD10023FB6094
:1026F000204B1B6B1F4A43F0020313631D4B1B6BE4
:1027000003F00203FB60FB680023BB60194B1B6BEB
:10271000184A43F004031363164B1B6B03F00403C6
:10272000BB60BB6802237B610223BB610023FB61AA
:1027300000233B6202237B6207F114031946104811
:1027400000F062FD4FF4E0737B610223BB61002364
:10275000FB6100233B6202237B6207F114031946ED
:10276000084800F051FD00BF2837BD4680BD00BFBE
:102770000000014000380240000002400004004018
:10278000000402400008024080B500AF114B124A1D
:102790001A60104B4FF4E1325A600E4B00229A60DF
:1027A0000C4B0022DA600B4B00221A61094B0C2201
:1027B0005A61084B00229A61064B0022DA610548F3
:1027C00003F080F90346002B01D0FFF7E3F900BFC7
:1027D00080BD00BF740800200010014080B58AB0A1
:1027E00000AF786007F1140300221A605A609A6003
:1027F000DA601A617B681B681D4A934234D100235A
:102800003B611C4B5B6C1B4A43F010035364194B38
:102810005B6C03F010033B613B690023FB60154BCD
:102820001B6B144A43F001031363124B1B6B03F041
:102830000103FB60FB684FF4C0637B610223BB6153
:102840000023FB6100233B6207237B6207F1140333
:102850001946094800F0D8FC00220021252000F08C
:102860000AFC252000F023FC00BF2837BD4680BDB0
:10287000001001400038024000000240DFF834D070
:10288000FFF736FD0C480D490D4A002302E0D458ED
:10289000C4500433C4188C42F9D30A4A0A4C0023AA
:1028A00001E013600432A242FBD304F027FFFEF7DD
:1028B00057FE704700C0012000000020E401002006
:1028C00058AC0008E40100203C0A0020FEE70000AC
:1028D00080B500AF0E4B1B680D4A43F400731360C4
:1028E0000B4B1B680A4A43F480631360084B1B6858
:1028F000074A43F480731360032000F0B1FB0F20FC
:1029000000F008F8FFF712FC0023184680BD00BF56
:10291000003C024080B582B000AF7860124B1A686C
:10292000124B1B7819464FF47A73B3FBF1F3B2FBE9
:10293000F3F3184600F0C9FB0346002B01D0012336
:102940000EE07B680F2B0AD8002279684FF0FF3029
:1029500000F091FB064A7B681360002300E001232E
:1029600018460837BD4680BD100000201800002022
:102970001400002080B400AF064B1B781A46064BAB
:102980001B681344044A136000BFBD465DF8047B16
:10299000704700BF18000020EC08002080B400AF92
:1029A000034B1B681846BD465DF8047B704700BFAB
:1029B000EC08002080B584B000AF7860FFF7EEFF30
:1029C000B8607B68FB60FB68B3F1FF3F05D00A4B42
:1029D0001B781A46FB681344FB6000BFFFF7DEFF5D
:1029E0000246BB68D31AFA689A42F7D800BF00BF04
:1029F0001037BD4680BD00BF1800002080B584B0F0
:102A000000AF78600023FB737B68002B01D10123AA
:102A100033E07B681B6C002B09D17868FEF732FB32
:102A20007B6800225A647B68002283F83C207B6824
:102A30001B6C03F01003002B18D17B681B6C23F474
:102A4000885323F0020343F002027B681A6478681B
:102A500000F03AF97B6800225A647B681B6C23F013
:102A6000030343F001027B681A6401E00123FB7356
:102A70007B68002283F83C20FB7B18461037BD465C
:102A800080BD000080B485B000AF7860396000235D
:102A9000BB607B6893F83C30012B01D1022305E138
:102AA0007B68012283F83C203B681B68092B25D9F1
:102AB0007B681B68D9683B681B689BB21A46134643
:102AC0005B0013441E3B072202FA03F3DA437B68E0
:102AD0001B680A40DA607B681B68D9683B689A68A3
:102AE0003B681B689BB2184603465B0003441E3BD1
:102AF0009A407B681B680A43DA6022E07B681B68A7
:102B000019693B681B689BB21A4613465B00134465
:102B1000072202FA03F3DA437B681B680A401A6152
:102B20007B681B6819693B689A683B681B689BB2A5
:102B3000184603465B0003449A407B681B680A43BF
:102B40001A613B685B68062B24D87B681B68596B4D
:102B50003B685A6813469B001344053B1F2202FA48
:102B600003F3DA437B681B680A405A637B681B687F
:102B7000596B3B681B689BB218463B685A68134602
:102B80009B001344053B00FA03F27B681B680A4371
:102B90005A634CE03B685B680C2B24D87B681B684D
:102BA000196B3B685A6813469B001344233B1F2252
:102BB00002FA03F3DA437B681B680A401A637B68F6
:102BC0001B68196B3B681B689BB218463B685A68C8
:102BD00013469B001344233B00FA03F27B681B68F7
:102BE0000A431A6323E07B681B68D96A3B685A680A
:102BF00013469B001344413B1F2202FA03F3DA43BE
:102C00007B681B680A40DA627B681B68D96A3B688C
:102C10001B689BB218463B685A6813469B001344D6
:102C2000413B00FA03F27B681B680A43DA62224BDD
:102C3000FB607B681B68214A934209D13B681B6893
:102C4000122B05D1FB685B6843F48002FB685A6075
:102C50007B681B68194A934223D13B681B68102B81
:102C600003D03B681B68112B1BD1FB685B6843F4E6
:102C70000002FB685A603B681B68102B11D1104B97
:102C80001B68104AA2FB03239A0C13469B001344B3
:102C90005B00BB6002E0BB68013BBB60BB68002B14
:102CA000F9D17B68002283F83C20002318461437B2
:102CB000BD465DF8047B70470023014000200140C1
:102CC0001000002083DE1B4380B485B000AF786025
:102CD000794BFB60FB685B6823F44032FB685A6009
:102CE000FB685A687B685B681A43FB685A607B68BC
:102CF0001B685A687B681B6822F480725A607B6884
:102D00001B6859687B681B691A027B681B680A4349
:102D10005A607B681B685A687B681B6822F04072A7
:102D20005A607B681B6859687B689A687B681B6877
:102D30000A435A607B681B689A687B681B6822F4A8
:102D400000629A607B681B6899687B68DA687B68B8
:102D50001B680A439A607B689B6A584A934222D058
:102D60007B681B689A687B681B6822F070629A60B7
:102D70007B681B6899687B689A6A7B681B680A4352
:102D80009A607B681B689A687B681B6822F04052D7
:102D90009A607B681B6899687B68DA6A7B681B6845
:102DA0000A439A600FE07B681B689A687B681B681F
:102DB00022F070629A607B681B689A687B681B6867
:102DC00022F040529A607B681B689A687B681B6897
:102DD00022F002029A607B681B6899687B681B7E00
:102DE0005A007B681B680A439A607B6893F820301E
:102DF000002B1BD07B681B685A687B681B6842F4F9
:102E000000625A607B681B685A687B681B6822F402
:102E100060425A607B681B6859687B685B6A013B4B
:102E20005A037B681B680A435A6007E07B681B688B
:102E30005A687B681B6822F400625A607B681B68D2
:102E4000DA6A7B681B6822F47002DA627B681B68AE
:102E5000D96A7B68DB69013B1A057B681B680A43FA
:102E6000DA627B681B689A687B681B6822F40072D0
:102E70009A607B681B6899687B6893F830305A02C7
:102E80007B681B680A439A607B681B689A687B684A
:102E90001B6822F480629A607B681B6899687B6873
:102EA0005B699A027B681B680A439A6000BF14370B
:102EB000BD465DF8047B7047002301400100000F10
:102EC00080B485B000AF78607B6803F00703FB60D7
:102ED0000C4BDB68BB60BA684FF6FF031340BB6066
:102EE000FB681A02BB68134343F0BF6343F400332B
:102EF000BB60044ABB68D36000BF1437BD465DF8B1
:102F0000047B704700ED00E080B400AF044BDB6849
:102F10001B0A03F007031846BD465DF8047B7047A3
:102F200000ED00E080B483B000AF0346FB7197F979
:102F30000730002B0BDBFB7903F01F02074997F9E1
:102F400007305B09012000FA02F241F8232000BF9C
:102F50000C37BD465DF8047B704700BF00E100E020
:102F600080B483B000AF03463960FB7197F9073036
:102F7000002B0ADB3B68DAB20C4997F907301201E3
:102F8000D2B20B4483F800230AE03B68DAB2084966
:102F9000FB7903F00F03043B1201D2B20B441A7603
:102FA00000BF0C37BD465DF8047B704700E100E0D0
:102FB00000ED00E080B489B000AFF860B9607A60DD
:102FC000FB6803F00703FB61FB69C3F10703042BF4
:102FD00028BF0423BB61FB690433062B02D9FB69BC
:102FE000033B00E000237B614FF0FF32BB6902FA34
:102FF00003F3DA43BB681A407B699A404FF0FF3114
:103000007B6901FA03F3D9437B680B4013431846ED
:103010002437BD465DF8047B7047000080B582B060
:1030200000AF78607B68013BB3F1807F01D301235F
:103030000FE00A4A7B68013B53600F214FF0FF30DD
:10304000FFF78EFF054B00229A60044B07221A609F
:10305000002318460837BD4680BD00BF10E000E0E1
:1030600080B582B000AF78607868FFF729FF00BFB5
:103070000837BD4680BD80B586B000AF0346B96055
:103080007A60FB7300237B61FFF73EFF78617A680B
:10309000B9687869FFF78EFF024697F90F3011463D
:1030A0001846FFF75DFF00BF1837BD4680BD80B5ED
:1030B00082B000AF0346FB7197F907301846FFF75F
:1030C00031FF00BF0837BD4680BD80B582B000AF7C
:1030D00078607868FFF7A2FF034618460837BD46B8
:1030E00080BD80B584B000AF78607B689B6DFB606D
:1030F000FFF754FCB8607B6893F83530DBB2022BE5
:1031000008D07B6880225A657B68002283F83420CF
:10311000012352E07B681B681A687B681B6822F0F9
:1031200016021A607B681B685A697B681B6822F06C
:1031300080025A617B681B6C002B03D17B689B6CFF
:10314000002B07D07B681B681A687B681B6822F01D
:1031500008021A607B681B681A687B681B6822F08B
:1031600001021A6013E0FFF719FC0246BB68D31A8C
:10317000052B0CD97B6820225A657B68032283F8D3
:1031800035207B68002283F83420032315E07B6818
:103190001B681B6803F00103002BE4D17B68DB6D27
:1031A0003F229A40FB689A607B68012283F83520B1
:1031B0007B68002283F83420002318461037BD4670
:1031C00080BD80B483B000AF78607B6893F8353001
:1031D000DBB2022B04D07B6880225A6501230CE00D
:1031E0007B68052283F835207B681B681A687B683A
:1031F0001B6822F001021A60002318460C37BD46F6
:103200005DF8047B7047000080B489B000AF78603F
:10321000396000237B6100233B610023BB610023F5
:10322000FB616BE10122FB6902FA03F37B613B68FE
:103230001B687A6913403B613A697B699A4240F0A6
:103240005A813B685B6803F00303012B05D03B68A0
:103250005B6803F00303022B30D17B689B68BB6182
:10326000FB695B00032202FA03F3DB43BA691340F4
:10327000BB613B68DA68FB695B0002FA03F3BA6979
:103280001343BB617B68BA699A607B685B68BB610A
:103290000122FB6902FA03F3DB43BA691340BB6105
:1032A0003B685B681B0903F00102FB6902FA03F348
:1032B000BA691343BB617B68BA695A603B685B6853
:1032C00003F00303032B17D07B68DB68BB61FB694A
:1032D0005B00032202FA03F3DB43BA691340BB61CC
:1032E0003B689A68FB695B0002FA03F3BA6913430F
:1032F000BB617B68BA69DA603B685B6803F0030313
:10330000022B23D1FB69DA087B68083253F822309C
:10331000BB61FB6903F007039B000F2202FA03F372
:10332000DB43BA691340BB613B681A69FB6903F070
:1033300007039B0002FA03F3BA691343BB61FB69FD
:10334000DA087B680832B96943F822107B681B6889
:10335000BB61FB695B00032202FA03F3DB43BA693A
:103360001340BB613B685B6803F00302FB695B00D1
:1033700002FA03F3BA691343BB617B68BA691A6046
:103380003B685B6803F44033002B00F0B4800023FB
:10339000FB60604B5B6C5F4A43F4804353645D4B5E
:1033A0005B6C03F48043FB60FB685B4AFB699B0832
:1033B000023352F82330BB61FB6903F003039B0027
:1033C0000F2202FA03F3DB43BA691340BB617B6847
:1033D000524A93422BD07B68514A934225D07B6856
:1033E000504A93421FD07B684F4A934219D07B6862
:1033F0004E4A934213D07B684D4A93420DD07B686E
:103400004C4A934207D07B684B4A934201D1072331
:103410000EE008230CE006230AE0052308E004235D
:1034200006E0032304E0022302E0012300E000237E
:10343000FA6902F0030292009340BA691343BB6138
:103440003549FB699B080233BA6941F823203B4B9D
:103450009B68BB613B69DB43BA691340BB613B6856
:103460005B6803F48013002B03D0BA693B691343F4
:10347000BB61324ABB699360304BDB68BB613B691F
:10348000DB43BA691340BB613B685B6803F400131C
:10349000002B03D0BA693B691343BB61274ABB6960
:1034A000D360264B5B68BB613B69DB43BA69134061
:1034B000BB613B685B6803F40033002B03D0BA693F
:1034C0003B691343BB611D4ABB6953601B4B1B68BF
:1034D000BB613B69DB43BA691340BB613B685B6816
:1034E00003F48033002B03D0BA693B691343BB61FB
:1034F000124ABB691360FB690133FB61FB690F2B47
:103500007FF690AE00BF00BF2437BD465DF8047B58
:10351000704700BF00380240003801400000024000
:103520000004024000080240000C0240001002406B
:103530000014024000180240001C0240003C014000
:1035400080B485B000AF78600B467B807B681A69D9
:103550007B881340002B02D00123FB7301E0002382
:10356000FB73FB7B18461437BD465DF8047B704740
:1035700080B483B000AF78600B467B8013467B70CD
:103580007B78002B03D07A887B689A6103E07B8884
:103590001A047B689A6100BF0C37BD465DF8047B56
:1035A0007047000080B582B000AF0346FB80084B37
:1035B0005A69FB881340002B06D0054AFB885361EB
:1035C000FB881846FEF78CFA00BF0837BD4680BD61
:1035D000003C014080B584B000AF78607B68002B70
:1035E00001D1012371E17B6893F83D30DBB2002B00
:1035F0002CD17B68002283F83C207B68774A5A658F
:103600007B68774A9A657B68764ADA657B68764A92
:103610001A667B68754A5A667B68754A9A667B6843
:10362000744ADA667B68744A1A677B68734A5A6719
:103630007B68734A9A677B68DB6F002B02D17B68DB
:10364000704ADA677B68DB6F786898477B6824226A
:1036500083F83D207B681B681A687B681B6822F032
:1036600001021A607B681B681A687B681B6842F459
:1036700000421A607B681B681A687B681B6822F42A
:1036800000421A6001F084FAF8607B685B685E4A69
:10369000934207D8FB685D4A934294BF01230023FD
:1036A000DBB206E0FB685A4A934294BF0123002331
:1036B000DBB2002B01D0012307E1FB68554AA2FBD6
:1036C00003239B0CBB607B681B685B6823F03F0196
:1036D0007B681B68BA680A435A607B681B681B6A70
:1036E00023F03F017B685B68474A934202D8BB687E
:1036F000013309E0BB684FF4967202FB03F3464ABC
:10370000A2FB03239B0901337A6812680B431362FF
:103710007B681B68DB6923F44F4222F0FF027B6861
:103720005B6839498B4219D8FB68591E7B685B6816
:103730005B00B1FBF3F3591C40F6FC730B40002B0C
:103740000AD0FB68591E7B685B685B00B1FBF3F332
:103750000133C3F30B0371E004236FE07B689B68C4
:10376000002B11D1FB68581E7B6859680B465B0023
:103770000B44B0FBF3F30133C3F30B03002B0CBF7B
:1037800001230023DBB212E0FB68581E7B685968F6
:103790000B469B000B4499000B44B0FBF3F3013341
:1037A000C3F30B03002B0CBF01230023DBB2002B60
:1037B00001D0012342E07B689B68002B2ED1FB687F
:1037C000581E7B6859680B465B000B44B0FBF3F353
:1037D0000133C3F30B0343F400432FE02D3D0008F6
:1037E000413D0008553D0008693D0008993D00082D
:1037F000AD3D0008C13D0008D53D0008E93D000889
:103800007D3D0008D1140008A08601007F841E00C1
:10381000FF083D0083DE1B43D34D6210FB68581E3A
:103820007B6859680B469B000B4499000B44B0FB26
:10383000F3F30133C3F30B0343F44043796809689E
:103840001343CB617B681B681B6823F0C0017B6856
:10385000DA697B681B6A1A437B681B680A431A6033
:103860007B681B689B6823F4034323F0FF037A689B
:1038700011697A68D26811437A6812680B439360C1
:103880007B681B68DB6823F0FF017B685A697B68F3
:103890009B691A437B681B680A43DA607B681B6874
:1038A0001A687B681B6842F001021A607B6800227C
:1038B0001A647B68202283F83D207B6800221A630B
:1038C0007B68002283F83E20002318461037BD464F
:1038D00080BD00BF80B588B002AFF8607A601A463C
:1038E0000B467B8113463B81FFF758F87861FB68F4
:1038F00093F83D30DBB2202B40F0E0807B690093F1
:10390000192301227049F86800F0FAFA0346002BE7
:1039100001D00223D3E0FB6893F83C30012B01D1A6
:103920000223CCE0FB68012283F83C20FB681B6883
:103930001B6803F00103012B07D0FB681B681A68A2
:10394000FB681B6842F001021A60FB681B681A687A
:10395000FB681B6822F400621A60FB68212283F86E
:103960003D20FB68102283F83E20FB6800221A6489
:10397000FB687A685A62FB683A895A85FB685B8DF6
:103980009AB2FB681A85FB68504ADA6279897B69CA
:103990003A6AF86800F032FA0346002B01D001239E
:1039A0008DE000233B61FB681B685B693B61FB6842
:1039B0001B689B693B613B6966E07A69396AF86814
:1039C00000F0B8FB0346002B0DD0FB681B6C042BEA
:1039D00007D1FB681B681A68FB681B6842F4007219
:1039E0001A6001236BE0FB685B6A1A78FB681B684E
:1039F0001A61FB685B6A5A1CFB685A62FB685B8D44
:103A00009BB2013B9AB2FB685A85FB681B8D013B58
:103A10009AB2FB681A85FB681B685B6903F00403B4
:103A2000042B1BD1FB681B8D002B17D0FB685B6A36
:103A30001A78FB681B681A61FB685B6A5A1CFB6892
:103A40005A62FB685B8D9BB2013B9AB2FB685A8558
:103A5000FB681B8D013B9AB2FB681A857A69396A4B
:103A6000F86800F0AFFB0346002B0DD0FB681B6C21
:103A7000042B07D1FB681B681A68FB681B6842F4BB
:103A800000721A6001231AE0FB681B8D002B94D191
:103A9000FB681B681A68FB681B6842F400721A60B6
:103AA000FB68202283F83D20FB68002283F83E203B
:103AB000FB68002283F83C20002300E00223184624
:103AC0001837BD4680BD00BF020010000000FFFF98
:103AD00080B58AB002AFF8607A603B600B467B81AC
:103AE000FEF75CFFF8610023BB61FB6893F83D3093
:103AF000DBB2202B40F01181FB69009319230122D6
:103B00008849F86800F0FCF90346002B01D0022335
:103B100004E1FB6893F83C30012B01D10223FDE066
:103B2000FB68012283F83C20FB681B681B6803F0DC
:103B30000103012B07D0FB681B681A68FB681B6830
:103B400042F001021A60FB681B681A68FB681B6878
:103B500022F400621A60FB68242283F83D20FB688F
:103B600000221A64FB68704ADA62FB681B681A68F4
:103B7000FB681B6842F480721A60FB6900933B6823
:103B800000224FF00111F86800F0BAF90346002B4B
:103B90000DD0FB681B681B6803F48073B3F5807F4E
:103BA00003D1FB684FF400721A640323B6E07B89EB
:103BB000DBB21A46FB681B6802F0FE021A61FEF7D0
:103BC000EDFEF861FB681B685B6903F00203022BE2
:103BD0000CBF01230023DBB2FB75FB681B685B692C
:103BE00003F48063B3F5806F0CBF01230023DBB2C5
:103BF000BB7525E0FEF7D2FE0246FB69D31A3A6890
:103C00009A4202D33B68002B03D1FB68A02283F8C1
:103C10003D20FB681B685B6903F00203022B0CBFAD
:103C200001230023DBB2FB75FB681B685B6903F4AF
:103C30008063B3F5806F0CBF01230023DBB2BB753B
:103C4000FB6893F83D30DBB2A02B05D0FB7D002B49
:103C500002D1BB7D002BCDD0FB68202283F83D2014
:103C6000FB681B685B6903F00203022B29D1FB6828
:103C70001B681A68FB681B6842F400721A60002314
:103C80003B61FB681B685B693B61FB681B689B6968
:103C90003B613B69FB690093192301222149F868C4
:103CA00000F02EF90346002B01D0012336E0FB681B
:103CB000202283F83D20FB68002283F83C2000236B
:103CC0002CE0FB681B681A68FB681B6842F40072F2
:103CD0001A60FB681B686FF480625A61FB6900938D
:103CE000192301220F49F86800F00AF90346002B56
:103CF00001D0012312E0BB690133BB61BA697B6863
:103D00009A42FFF432AFFB68202283F83D20FB6823
:103D1000002283F83C20012300E0022318462037CC
:103D2000BD4680BD020010000000FFFF80B483B0DC
:103D300000AF786000BF0C37BD465DF8047B70476C
:103D400080B483B000AF786000BF0C37BD465DF82B
:103D5000047B704780B483B000AF786000BF0C373D
:103D6000BD465DF8047B704780B483B000AF7860D7
:103D700000BF0C37BD465DF8047B704780B483B04C
:103D800000AF78600B46FB7013463B8000BF0C37DA
:103D9000BD465DF8047B704780B483B000AF7860A7
:103DA00000BF0C37BD465DF8047B704780B483B01C
:103DB00000AF786000BF0C37BD465DF8047B7047EC
:103DC00080B483B000AF786000BF0C37BD465DF8AB
:103DD000047B704780B483B000AF786000BF0C37BD
:103DE000BD465DF8047B704780B483B000AF786057
:103DF00000BF0C37BD465DF8047B704780B588B0C6
:103E000002AFF8607A603B600B467B81FB68DB6A3F
:103E10007B617B69082B06D07B69012B03D07B6912
:103E200013F5803F08D1FB681B681A68FB681B68A4
:103E300042F480721A600BE0FB681B6B122B07D1F7
:103E4000FB681B681A68FB681B6842F480721A6082
:103E50003B6800937B6800224FF00111F86800F086
:103E60004FF80346002B0DD0FB681B681B6803F45A
:103E70008073B3F5807F03D1FB684FF400721A643E
:103E8000032335E0FB681B69B3F5804F08D17B89BC
:103E9000DBB21A46FB681B6802F0FE021A611BE0E7
:103EA0007B89DB11DBB203F00603DBB263F00F03A7
:103EB000DAB2FB681B681A613B687A680E49F868D9
:103EC00000F098F80346002B01D0012310E07B8915
:103ED000DAB2FB681B681A613B687A680749F868C0
:103EE00000F088F80346002B01D0012300E00023F6
:103EF00018461837BD4680BD0800010002000100C9
:103F000080B584B000AFF860B9603B601346FB71C8
:103F100048E03B68B3F1FF3F44D0FEF73FFD024667
:103F2000BB69D31A3A689A4202D33B68002B39D155
:103F3000BB681B0CDBB2012B0DD1FB681B685B69F6
:103F4000DA43BB6813409BB2002B0CBF0123002354
:103F5000DBB21A460CE0FB681B689B69DA43BB685E
:103F600013409BB2002B0CBF01230023DBB21A4687
:103F7000FB799A4216D1FB6800221A63FB68202263
:103F800083F83D20FB68002283F83E20FB681B6C11
:103F900043F02002FB681A64FB68002283F83C208F
:103FA000012323E0BB681B0CDBB2012B0DD1FB68A6
:103FB0001B685B69DA43BB6813409BB2002B0CBFE4
:103FC00001230023DBB21A460CE0FB681B689B69E7
:103FD000DA43BB6813409BB2002B0CBF01230023C4
:103FE000DBB21A46FB799A4293D000231846103769
:103FF000BD4680BD80B584B000AFF860B9607A601E
:104000003B6071E0FB681B685B6903F48063B3F598
:10401000806F23D1FB681B681A68FB681B6842F439
:1040200000721A60FB681B686FF480625A61FB685B
:1040300000221A63FB68202283F83D20FB680022DF
:1040400083F83E20FB681B6C43F00402FB681A6493
:10405000FB68002283F83C20012367E07B68B3F112
:10406000FF3F41D0FEF79AFC02463B68D31A7A68BC
:104070009A4202D37B68002B36D1BB681B0CDBB2A3
:10408000012B0CD1FB681B685B69DA43BB681340EA
:104090009BB2002B14BF01230023DBB20BE0FB68B3
:1040A0001B689B69DA43BB6813409BB2002B14BFAB
:1040B00001230023DBB2002B16D0FB6800221A6319
:1040C000FB68202283F83D20FB68002283F83E2015
:1040D000FB681B6C43F02002FB681A64FB6800223B
:1040E00083F83C20012321E0BB681B0CDBB2012BD1
:1040F0000CD1FB681B685B69DA43BB6813409BB259
:10410000002B14BF01230023DBB20BE0FB681B680C
:104110009B69DA43BB6813409BB2002B14BF012399
:104120000023DBB2002B7FF46DAF0023184610375D
:10413000BD4680BD80B584B000AFF860B9607A60DC
:1041400034E0F86800F086F80346002B01D0012324
:1041500034E0BB68B3F1FF3F28D0FEF71FFC0246F6
:104160007B68D31ABA689A4202D3BB68002B1DD170
:10417000FB681B685B6903F08003802B16D0FB682B
:1041800000221A63FB68202283F83D20FB6800228E
:1041900083F83E20FB681B6C43F02002FB681A6426
:1041A000FB68002283F83C20012307E0FB681B68C2
:1041B0005B6903F08003802BC3D1002318461037BE
:1041C000BD4680BD80B584B000AFF860B9607A604C
:1041D00034E0F86800F03EF80346002B01D00123DC
:1041E00034E0BB68B3F1FF3F28D0FEF7D7FB0246AF
:1041F0007B68D31ABA689A4202D3BB68002B1DD1E0
:10420000FB681B685B6903F00403042B16D0FB6892
:1042100000221A63FB68202283F83D20FB680022FD
:1042200083F83E20FB681B6C43F02002FB681A6495
:10423000FB68002283F83C20012307E0FB681B6831
:104240005B6903F00403042BC3D100231846103725
:10425000BD4680BD80B483B000AF78607B681B68CA
:104260005B6903F48063B3F5806F1BD17B681B68C7
:104270006FF480625A617B6800221A637B68202297
:1042800083F83D207B68002283F83E207B681B6C0E
:1042900043F004027B681A647B68002283F83C20A8
:1042A000012300E0002318460C37BD465DF8047B6F
:1042B0007047000080B586B000AF78607B68002B47
:1042C00001D1012367E27B681B6803F00103002B27
:1042D00075D0884B9B6803F00C03042B0CD0854BE6
:1042E0009B6803F00C03082B12D1824B5B6803F42C
:1042F0008003B3F5800F0BD17E4B1B6803F40033B2
:10430000002B5BD07B685B68002B57D1012342E216
:104310007B685B68B3F5803F06D1764B1B68754AB6
:1043200043F4803313601DE07B685B68B3F5A02F16
:104330000CD1704B1B686F4A43F4802313606D4BA4
:104340001B686C4A43F4803313600BE0694B1B68B5
:10435000684A23F480331360664B1B68654A23F474
:10436000802313607B685B68002B13D0FEF716FB7D
:10437000386108E0FEF712FB02463B69D31A642B52
:1043800001D9032307E25B4B1B6803F40033002BC6
:10439000F0D014E0FEF702FB386108E0FEF7FEFA09
:1043A00002463B69D31A642B01D90323F3E1514B35
:1043B0001B6803F40033002BF0D100E000BF7B68E2
:1043C0001B6803F00203002B63D04A4B9B6803F089
:1043D0000C03002B0BD0474B9B6803F00C03082BFE
:1043E0001CD1444B5B6803F48003002B16D1414B76
:1043F0001B6803F00203002B05D07B68DB68012BF0
:1044000001D00123C7E13B4B1B6823F0F8027B6816
:104410001B69DB00374913430B603AE07B68DB68BC
:10442000002B20D0344B01221A60FEF7B7FA386116
:1044300008E0FEF7B3FA02463B69D31A022B01D912
:104440000323A8E12B4B1B6803F00203002BF0D0E1
:10445000284B1B6823F0F8027B681B69DB002549A9
:1044600013430B6015E0244B00221A60FEF796FA06
:10447000386108E0FEF792FA02463B69D31A022B34
:1044800001D9032387E11B4B1B6803F00203002BB8
:10449000F0D17B681B6803F00803002B36D07B68E3
:1044A0005B69002B16D0154B01221A60FEF776FAD5
:1044B000386108E0FEF772FA02463B69D31A022B14
:1044C00001D9032367E10B4B5B6F03F00203002B61
:1044D000F0D01BE0094B00221A60FEF75FFA38614A
:1044E0000EE0FEF75BFA02463B69D31A022B07D9AE
:1044F000032350E10038024000004742800E47424B
:10450000884B5B6F03F00203002BEAD17B681B68CA
:1045100003F00403002B00F097800023FB75814B10
:104520001B6C03F08053002B0FD10023BB607D4B2D
:104530001B6C7C4A43F0805313647A4B1B6C03F072
:104540008053BB60BB680123FB75774B1B6803F48A
:104550008073002B18D1744B1B68734A43F480732B
:104560001360FEF71BFA386108E0FEF717FA0246FF
:104570003B69D31A022B01D903230CE16A4B1B6858
:1045800003F48073002BF0D07B689B68012B06D16D
:10459000644B1B6F634A43F0010313671CE07B68A5
:1045A0009B68052B0CD15F4B1B6F5E4A43F00403E5
:1045B00013675C4B1B6F5B4A43F0010313670BE00F
:1045C000584B1B6F574A23F001031367554B1B6F62
:1045D000544A23F0040313677B689B68002B15D0B3
:1045E000FEF7DCF938610AE0FEF7D8F902463B69CC
:1045F000D31A41F28832934201D90323CBE0494BCD
:104600001B6F03F00203002BEED014E0FEF7C6F997
:1046100038610AE0FEF7C2F902463B69D31A41F25B
:104620008832934201D90323B5E03E4B1B6F03F060
:104630000203002BEED1FB7D012B05D1394B1B6C06
:10464000384A23F0805313647B689B69002B00F089
:10465000A180344B9B6803F00C03082B5CD07B6873
:104660009B69022B41D1314B00221A60FEF796F96B
:10467000386108E0FEF792F902463B69D31A022B33
:1046800001D9032387E0274B1B6803F00073002B3D
:10469000F0D17B68DA697B681B6A1A437B685B6AC6
:1046A0009B011A437B689B6A5B08013B1B041A430E
:1046B0007B68DB6A1B061B4913434B601B4B0122C3
:1046C0001A60FEF76BF9386108E0FEF767F90246F9
:1046D0003B69D31A022B01D903235CE0114B1B6801
:1046E00003F00073002BF0D054E0104B00221A604E
:1046F000FEF754F9386108E0FEF750F902463B69CD
:10470000D31A022B01D9032345E0064B1B6803F0A3
:104710000073002BF0D13DE07B689B69012B07D132
:10472000012338E00038024000700040600047423A
:104730001B4B5B68FB607B689B69012B28D0FB6887
:1047400003F480027B68DB699A4221D1FB6803F0A5
:104750003F027B681B6A9A421AD1FA6847F6C07317
:1047600013407A68526A9201934211D1FB6803F4B4
:1047700040327B689B6A5B08013B1B049A4207D16D
:10478000FB6803F070627B68DB6A1B069A4201D00B
:10479000012300E0002318461837BD4680BD00BF46
:1047A0000038024080B584B000AF786039607B6823
:1047B000002B01D10123CCE0684B1B6803F00703F9
:1047C0003A689A420CD9654B3A68D2B21A70634B78
:1047D0001B6803F007033A689A4201D00123B8E04E
:1047E0007B681B6803F00203002B20D07B681B68EA
:1047F00003F00403002B05D0594B9B68584A43F43F
:10480000E05393607B681B6803F00803002B05D01E
:10481000534B9B68524A43F460439360504B9B68F0
:1048200023F0F0027B689B684D4913438B607B68E3
:104830001B6803F00103002B44D07B685B68012BED
:1048400007D1474B1B6803F40033002B19D1012318
:104850007FE07B685B68022B03D07B685B68032B7F
:1048600007D13F4B1B6803F00073002B09D10123D4
:104870006FE03B4B1B6803F00203002B01D10123C7
:1048800067E0374B9B6823F003027B685B68344921
:1048900013438B60FEF782F8F8600AE0FEF77EF8BB
:1048A0000246FB68D31A41F28832934201D90323AE
:1048B0004FE02B4B9B6803F00C027B685B689B000E
:1048C0009A42EBD1254B1B6803F007033A689A42E2
:1048D0000CD2224B3A68D2B21A70204B1B6803F0FC
:1048E00007033A689A4201D0012332E07B681B68D3
:1048F00003F00403002B08D0194B9B6823F4E0520B
:104900007B68DB68164913438B607B681B6803F088
:104910000803002B09D0124B9B6823F460427B688C
:104920001B69DB000E4913438B6000F021F802463F
:104930000B4B9B681B0903F00F030A49CB5C22FA5F
:1049400003F3094A1360094B1B681846FDF7E2FFA1
:10495000002318461037BD4680BD00BF003C024012
:1049600000380240BCA800081000002014000020FD
:104970002DE9B04F94B000AF00237B640023FB64AB
:1049800000233B640023BB64794B9B6803F00C035A
:10499000082B0DD0082B00F2E180002B02D0042B55
:1049A00003D0DBE0734BBB64DBE0724BBB64D8E04D
:1049B0006F4B5B6803F03F037B646D4B5B6803F4F4
:1049C0008003002B63D06A4B5B689B090022BB63AA
:1049D000FA63BB6BC3F308033B6300237B63D7E934
:1049E0000C4522462B464FF000004FF000015901C4
:1049F00041EAD261500102460B462146511A396103
:104A0000294663EB01037B614FF000024FF0000386
:104A1000D7E904AB59468B01514643EA91635146AD
:104A20008A015146B2EB0108594663EB01094FF088
:104A300000024FF000034FEAC90343EA58734FEAFC
:104A4000C80290469946234618EB0303BB602B46E9
:104A500049EB0303FB604FF000024FF00003D7E97E
:104A6000024529468B02214643EA915321468A0298
:104A7000104619467B6C0022BB62FA62D7E90A2312
:104A8000FCF792F802460B461346FB6458E0384B9D
:104A90005B689B09002218461146C0F308033B627D
:104AA00000237B62D7E9088942464B464FF000005D
:104AB0004FF00001590141EAD261500102460B4614
:104AC0004146B2EB010A494663EB010B4FF000028D
:104AD0004FF000034FEA8B1343EA9A634FEA8A12BE
:104AE000B2EB0A0463EB0B054FF000024FF000033A
:104AF000EB0043EA5473E20014461D464346E318B4
:104B00003B604B4645EB03037B604FF000024FF0E8
:104B10000003D7E9004529468B02214643EA915319
:104B200021468A02104619467B6C0022BB61FA615D
:104B3000D7E90623FCF738F802460B461346FB6418
:104B40000B4B5B681B0C03F0030301335B003B64FE
:104B5000FA6C3B6CB2FBF3F3BB6402E0054BBB6445
:104B600000BFBB6C18465037BD46BDE8B08F00BFD4
:104B7000003802400024F40080B400AF034B1B68EF
:104B80001846BD465DF8047B704700BF100000204A
:104B900080B500AFFFF7F0FF0246054B9B689B0A0C
:104BA00003F007030349CB5C22FA03F3184680BDE8
:104BB00000380240CCA8000880B500AFFFF7DCFF4A
:104BC0000246054B9B685B0B03F007030349CB5C74
:104BD00022FA03F3184680BD00380240CCA8000832
:104BE00080B582B000AF78607B68002B01D10123D3
:104BF00041E07B6893F83D30DBB2002B06D17B6847
:104C0000002283F83C207868FDF7ECFC7B680222E8
:104C100083F83D207B681A687B6804331946104688
:104C200000F066FB7B68012283F846207B68012246
:104C300083F83E207B68012283F83F207B680122B5
:104C400083F840207B68012283F841207B680122A1
:104C500083F842207B68012283F843207B6801228D
:104C600083F844207B68012283F845207B68012279
:104C700083F83D20002318460837BD4680BD80B527
:104C800082B000AF78607B68002B01D1012341E046
:104C90007B6893F83D30DBB2002B06D17B680022A5
:104CA00083F83C20786800F039F87B68022283F8AA
:104CB0003D207B681A687B6804331946104600F073
:104CC00017FB7B68012283F846207B68012283F86A
:104CD0003E207B68012283F83F207B68012283F815
:104CE00040207B68012283F841207B68012283F801
:104CF00042207B68012283F843207B68012283F8ED
:104D000044207B68012283F845207B68012283F8D8
:104D10003D20002318460837BD4680BD80B483B0CF
:104D200000AF786000BF0C37BD465DF8047B70476C
:104D300080B584B000AF786039603B68002B09D142
:104D40007B6893F83E30DBB2012B14BF01230023B4
:104D5000DBB222E03B68042B09D17B6893F83F303B
:104D6000DBB2012B14BF01230023DBB215E03B684B
:104D7000082B09D17B6893F84030DBB2012B14BFBC
:104D800001230023DBB208E07B6893F84130DBB2FB
:104D9000012B14BF01230023DBB2002B01D0012320
:104DA0007CE03B68002B04D17B68022283F83E2024
:104DB00013E03B68042B04D17B68022283F83F2078
:104DC0000BE03B68082B04D17B68022283F840206B
:104DD00003E07B68022283F841207B681B68012284
:104DE0003968184600F07AFD7B681B682D4A9342AB
:104DF00004D07B681B682C4A934201D1012300E058
:104E00000023002B07D07B681B685A6C7B681B68EB
:104E100042F400425A647B681B68224A934222D0C3
:104E20007B681B68B3F1804F1DD07B681B681F4AED
:104E3000934218D07B681B681D4A934213D07B684D
:104E40001B681C4A93420ED07B681B68164A93422B
:104E500009D07B681B68184A934204D07B681B68A2
:104E6000164A934211D17B681B689B6803F00703C5
:104E7000FB60FB68062B10D07B681B681A687B6898
:104E80001B6842F001021A6007E07B681B681A6821
:104E90007B681B6842F001021A6000231846103735
:104EA000BD4680BD000001400004014000040040F8
:104EB00000080040000C0040004001400018004085
:104EC00080B584B000AF786039607B6893F83E307D
:104ED000FB737B6893F83F30BB737B6893F8423079
:104EE0007B737B6893F843303B733B68002B10D196
:104EF000FB7B012B02D17B7B012B01D0012369E0DD
:104F00007B68022283F83E207B68022283F84220DD
:104F100031E03B68042B10D1BB7B012B02D13B7BE2
:104F2000012B01D0012355E07B68022283F83F204A
:104F30007B68022283F843201DE0FB7B012B08D114
:104F4000BB7B012B05D17B7B012B02D13B7B012B52
:104F500001D001233EE07B68022283F83E207B687B
:104F6000022283F83F207B68022283F842207B687C
:104F7000022283F843203B68002B03D03B68042BBC
:104F800008D00FE07B681B6801220021184600F062
:104F9000A5FC16E07B681B6801220421184600F07E
:104FA0009DFC0EE07B681B6801220021184600F082
:104FB00095FC7B681B6801220421184600F08EFCDA
:104FC00000BF7B681B681A687B681B6842F001029F
:104FD0001A60002318461037BD4680BD80B586B0E4
:104FE00000AFF860B9607A600023FB75FB6893F846
:104FF0003C30012B01D10223AEE0FB68012283F893
:105000003C207B680C2B00F29F8001A252F823F019
:10501000455000084951000849510008495100080D
:1050200085500008495100084951000849510008BD
:10503000C75000084951000849510008495100086B
:1050400007510008FB681B68B968184600F0FCF9B6
:10505000FB681B689A69FB681B6842F008029A614A
:10506000FB681B689A69FB681B6822F004029A615E
:10507000FB681B689969BB681A69FB681B680A436F
:105080009A6164E0FB681B68B968184600F04CFA46
:10509000FB681B689A69FB681B6842F400629A61AE
:1050A000FB681B689A69FB681B6822F480629A613E
:1050B000FB681B689969BB681B691A02FB681B685F
:1050C0000A439A6143E0FB681B68B968184600F020
:1050D000A1FAFB681B68DA69FB681B6842F00802EA
:1050E000DA61FB681B68DA69FB681B6822F004025E
:1050F000DA61FB681B68D969BB681A69FB681B68C1
:105100000A43DA6123E0FB681B68B968184600F0BF
:10511000F5FAFB681B68DA69FB681B6842F40062F9
:10512000DA61FB681B68DA69FB681B6822F480623D
:10513000DA61FB681B68D969BB681B691A02FB68E6
:105140001B680A43DA6102E00123FB7500BFFB68BC
:10515000002283F83C20FB7D18461837BD4680BDF1
:1051600080B584B000AF786039600023FB737B6842
:1051700093F83C30012B01D10223B4E07B6801227B
:1051800083F83C207B68022283F83D207B681B6803
:105190009B68BB60BB6823F07703BB60BB6823F4EC
:1051A0007F43BB607B681B68BA689A603B681B687A
:1051B000B3F5005F3ED0B3F5005F00F28780B3F532
:1051C000805F00F08680B3F5805F7FD8702B1AD0A7
:1051D000702B7BD8602B50D0602B77D8502B3CD0D5
:1051E000502B73D8402B58D0402B6FD8302B64D025
:1051F000302B6BD8202B60D0202B67D8002B5CD0B5
:10520000102B5AD062E07B6818683B6899683B684D
:105210005A683B68DB6800F041FB7B681B689B6851
:10522000BB60BB6843F07703BB607B681B68BA68F0
:105230009A604FE07B6818683B6899683B685A68D9
:105240003B68DB6800F02AFB7B681B689A687B6818
:105250001B6842F480429A603CE07B6818683B68B7
:1052600059683B68DB681A4600F09EFA7B681B6849
:105270005021184600F0F7FA2CE07B6818683B686C
:1052800059683B68DB681A4600F0BDFA7B681B680A
:105290006021184600F0E7FA1CE07B6818683B685C
:1052A00059683B68DB681A4600F07EFA7B681B6829
:1052B0004021184600F0D7FA0CE07B681A683B687A
:1052C0001B681946104600F0CEFA03E00123FB7379
:1052D00000E000BF7B68012283F83D207B6800224C
:1052E00083F83C20FB7B18461037BD4680BD00008C
:1052F00080B485B000AF786039607B681B68FB6064
:105300007B68464A934213D07B68B3F1804F0FD03D
:105310007B68434A93420BD07B68424A934207D052
:105320007B68414A934203D07B68404A934208D14C
:10533000FB6823F07003FB603B685B68FA6813430B
:10534000FB607B68354A93422BD07B68B3F1804F7A
:1053500027D07B68324A934223D07B68314A9342FC
:105360001FD07B68304A93421BD07B682F4A934200
:1053700017D07B682E4A934213D07B682D4A934204
:105380000FD07B682C4A93420BD07B682B4A934208
:1053900007D07B682A4A934203D07B68294A93420C
:1053A00008D1FB6823F44073FB603B68DB68FA6854
:1053B0001343FB60FB6823F080023B685B69134387
:1053C000FB607B68FA681A603B689A687B68DA62FF
:1053D0003B681A687B689A627B68104A934203D0E4
:1053E0007B68124A934203D13B681A697B681A634F
:1053F0007B6801225A617B681B6903F00103012B62
:1054000005D17B681B6923F001027B681A6100BF2C
:105410001437BD465DF8047B704700BF00000140B3
:105420000004004000080040000C0040000401405F
:105430000040014000440140004801400018004085
:10544000001C00400020004080B487B000AF7860AE
:1054500039607B681B6A7B617B681B6A23F00102F1
:105460007B681A627B685B683B617B689B69FB6059
:10547000FB6823F07003FB60FB6823F00303FB6011
:105480003B681B68FA681343FB607B6923F00203E7
:105490007B613B689B687A6913437B617B68204A28
:1054A000934203D07B681F4A93420CD17B6923F05F
:1054B00008037B613B68DB687A6913437B617B6926
:1054C00023F004037B617B68154A934203D07B6819
:1054D000144A934211D13B6923F480733B613B69C9
:1054E00023F400733B613B685B693A6913433B619A
:1054F0003B689B693A6913433B617B683A695A6030
:105500007B68FA689A613B685A687B685A637B6873
:105510007A691A6200BF1C37BD465DF8047B70478C
:10552000000001400004014080B487B000AF786003
:1055300039607B681B6A7B617B681B6A23F0100201
:105540007B681A627B685B683B617B689B69FB6078
:10555000FB6823F4E043FB60FB6823F44073FB60CB
:105560003B681B681B02FA681343FB607B6923F0EE
:1055700020037B613B689B681B017A6913437B6155
:105580007B68224A934203D07B68214A93420DD123
:105590007B6923F080037B613B68DB681B017A69D0
:1055A00013437B617B6923F040037B617B68174A6F
:1055B000934203D07B68164A934213D13B6923F48C
:1055C00080633B613B6923F400633B613B685B693B
:1055D0009B003A6913433B613B689B699B003A69B6
:1055E00013433B617B683A695A607B68FA689A6149
:1055F0003B685A687B689A637B687A691A6200BF65
:105600001C37BD465DF8047B704700BF00000140B9
:105610000004014080B487B000AF786039607B68D7
:105620001B6A7B617B681B6A23F480727B681A6249
:105630007B685B683B617B68DB69FB60FB6823F030
:105640007003FB60FB6823F00303FB603B681B688F
:10565000FA681343FB607B6923F400737B613B684A
:105660009B681B027A6913437B617B68214A9342E2
:1056700003D07B68204A93420DD17B6923F40063F9
:105680007B613B68DB681B027A6913437B617B6942
:1056900023F480637B617B68164A934203D07B6866
:1056A000154A934213D13B6923F480533B613B6914
:1056B00023F400533B613B685B691B013A69134368
:1056C0003B613B689B691B013A6913433B617B6803
:1056D0003A695A607B68FA68DA613B685A687B68A5
:1056E000DA637B687A691A6200BF1C37BD465DF8D1
:1056F000047B7047000001400004014080B487B083
:1057000000AF786039607B681B6A3B617B681B6A0D
:1057100023F480527B681A627B685B687B617B68DC
:10572000DB69FB60FB6823F4E043FB60FB6823F468
:105730004073FB603B681B681B02FA681343FB6005
:105740003B6923F400533B613B689B681B033A6948
:1057500013433B617B68124A934203D07B68114A32
:10576000934209D17B6923F480437B613B685B6989
:105770009B017A6913437B617B687A695A607B6815
:10578000FA68DA613B685A687B681A647B683A6930
:105790001A6200BF1C37BD465DF8047B704700BF2E
:1057A000000001400004014080B487B000AFF86001
:1057B000B9607A60FB681B6A7B61FB681B6A23F037
:1057C0000102FB681A62FB689B693B613B6923F03D
:1057D000F0033B617B681B013A6913433B617B69C2
:1057E00023F00A037B617A69BB6813437B61FB6822
:1057F0003A699A61FB687A691A6200BF1C37BD4634
:105800005DF8047B704780B487B000AFF860B96082
:105810007A60FB681B6A7B61FB681B6A23F01002DD
:10582000FB681A62FB689B693B613B6923F4704328
:105830003B617B681B033A6913433B617B6923F03F
:10584000A0037B61BB681B017A6913437B61FB6822
:105850003A699A61FB687A691A6200BF1C37BD46D3
:105860005DF8047B704780B485B000AF7860396024
:105870007B689B68FB60FB6823F07003FB603A6801
:10588000FB68134343F00703FB607B68FA689A6088
:1058900000BF1437BD465DF8047B704780B487B005
:1058A00000AFF860B9607A603B60FB689B687B6121
:1058B0007B6923F47F437B613B681A027B681A4350
:1058C000BB6813437A6913437B61FB687A699A600A
:1058D00000BF1C37BD465DF8047B704780B487B0BD
:1058E00000AFF860B9607A60BB6803F01F03012263
:1058F00002FA03F37B61FB681A6A7B69DB431A4097
:10590000FB681A62FB681A6ABB6803F01F037968B8
:1059100001FA03F31A43FB681A6200BF1C37BD4645
:105920005DF8047B7047000080B485B000AF7860FC
:1059300039607B6893F83C30012B01D102235AE097
:105940007B68012283F83C207B68022283F83D209B
:105950007B681B685B68FB607B681B689B68BB603F
:10596000FB6823F07003FB603B681B68FA68134315
:10597000FB607B681B68FA685A607B681B68214A79
:10598000934222D07B681B68B3F1804F1DD07B68A7
:105990001B681D4A934218D07B681B681B4A9342C0
:1059A00013D07B681B681A4A93420ED07B681B6831
:1059B000184A934209D07B681B68174A934204D067
:1059C0007B681B68154A93420CD1BB6823F08003A7
:1059D000BB603B685B68BA681343BB607B681B684D
:1059E000BA689A607B68012283F83D207B680022B8
:1059F00083F83C20002318461437BD465DF8047B2D
:105A0000704700BF00000140000400400008004053
:105A1000000C00400004014000400140001800401C
:105A200080B485B000AF786039600023FB607B688C
:105A300093F83C30012B01D102233DE07B68012229
:105A400083F83C20FB6823F0FF023B68DB681343CC
:105A5000FB60FB6823F440723B689B681343FB6068
:105A6000FB6823F480623B685B681343FB60FB6860
:105A700023F400623B681B681343FB60FB6823F45C
:105A800080523B681B691343FB60FB6823F40052A0
:105A90003B685B691343FB60FB6823F480423B680F
:105AA000DB691343FB607B681B68FA685A647B6898
:105AB000002283F83C20002318461437BD465DF8C9
:105AC000047B704780B582B000AF78607B68002BA4
:105AD00001D101234DE07B6893F84130DBB2002B0C
